:020000040800F2
:10000000D0730120A1010008D3380008A5330008EF
:10001000D1380008E1070008353E00080000000064
:10002000000000000000000000000000013A00088D
:100030009F09000800000000D5380008033A0008B6
:10004000BB010008BB010008BB010008BB010008A0
:10005000BB010008BB010008BB010008BB01000890
:10006000BB010008BB010008BB010008BB01000880
:1000700089080008BB01000895080008BB010008BA
:10008000A1080008AD080008BB010008BB0100087A
:10009000BB010008BB010008BB010008BB01000850
:1000A000BB010008A93A0008BB010008BB01000819
:1000B000BB010008BB010008BB010008BB01000830
:1000C000BB010008BB010008BB010008BB01000820
:1000D000BB010008113E00081D3E0008293E000833
:1000E000BB010008BB010008BB010008BB01000800
:1000F000BB010008BB010008BB010008BB010008F0
:10010000BB010008BB010008BB010008BB010008DF
:10011000BB010008BB010008C53A0008D13A00083D
:10012000BB010008B9080008C5080008BB010008A9
:10013000BB010008BB010008BB010008BB010008AF
:10014000BB010008BB010008BB010008BB0100089F
:10015000BB010008BB010008D1080008BB01000872
:10016000BB010008BB010008BB010008BB0100087F
:10017000BB010008BB0100087D080008000000006A
:10018000BB010008BB010008DFF810D000F07CFACA
:1001900000480047B56D0008AFF30080D073012020
:1001A0000648804706480047FEE7FEE7FEE7FEE711
:1001B000FEE7FEE7FEE7FEE7FEE7FEE7993A000806
:1001C000890100082DE9F05F0546002092469B4614
:1001D00088460646814640241BE02846414647465D
:1001E000224600F089F853465A46C01A914110D36E
:1001F00011461846224600F070F82D1A67EB0108E8
:100200004F4622460120002100F067F817EB000955
:100210004E41201EA4F10104DFDC484631462A4647
:100220004346BDE8F09F40EA01039B0703D009E085
:1002300008C9121F08C0042AFAD203E011F8013BD2
:1002400000F8013B521EF9D27047D2B201E000F82B
:10025000012B491EFBD270470022F6E710B513466A
:100260000A4604461946FFF7F0FF204610BD30B598
:1002700004460020034600E05B1C934203D2E05C8E
:10028000CD5C401BF8D030BD00F0004230F00040A3
:100290000AD0C10D01F56071C0F3160042EA0151A8
:1002A000C20840071143704700200146704730B52F
:1002B0000B46014600202022012409E021FA02F524
:1002C0009D4205D303FA02F5491B04FA02F52844BE
:1002D000151EA2F10102F1DC30BD202A04DB203A18
:1002E00000FA02F1002070479140C2F1200320FA89
:1002F00003F3194390407047202A04DB203A21FA87
:1003000002F00021704721FA02F3D040C2F120022E
:1003100091400843194670472DE9FE4F804681EA17
:100320000300C00F0C46009021F0004123F000456F
:10033000B8EB0200A94105D24046214690461C4632
:100340000B46024623F00040104347D0270DC7F369
:100350000A00C3F30A510290401A019040286BDA58
:10036000C3F3130040F4801B0098924620B1002391
:10037000D2EB030A63EB0B0B01985946C0F1400224
:100380005046FFF7AAFF06460D4650465946019AC9
:1003900000F08CF910EB08006141002487EA11524B
:1003A00084EAE7731A4340D0009A62B3019A012AA3
:1003B0004FEA075215DC001B61EB02014FF00042CF
:1003C00002EA0752CDE90042001C41F58011324695
:1003D0002B4600F08CF903B0BDE8F08F4046214673
:1003E000F9E7001B61EB0201001C41F580130018C6
:1003F0005B412018A2F5001747EB030140EAD570D6
:10040000B6196D4111E06D084FEA360645EAC07530
:100410004FEA0752001B61EB0201001C41F58011FD
:1004200049084FEA30000019514132462B4603B0CB
:10043000BDE8F04F00F04CB90098012240000023C5
:10044000D0EB020263EBE073009821464FEAE074C0
:10045000B8EB000061EB0401E9E783F000435BE7E0
:1004600081F0004158E72DE9FE4F81EA030404F0D2
:10047000004421F0004100944FF0000B23F00043B2
:1004800050EA01045ED052EA03045BD0C3F30A547D
:10049000C1F30A552C44A4F2F3340194A0FB025496
:1004A000C1F3130141F48011C3F3130343F4801328
:1004B00001FB024400FB034E840A970A44EA81547C
:1004C00047EA8357A4FB076802958D0A05FB078559
:1004D0004FEA932C04FB0C542705029D4FEA065863
:1004E00047EA1637B5EB08056EEB070C870E920E40
:1004F00047EA811742EA8312A7FB0201B6EB0B0120
:1005000064EB00042B0D43EA0C335E1844EB1C50E3
:10051000DA465146E7FB0201C5F313044FEA0B33F9
:1005200043EA14534FEA0432019C43EA0603A4F160
:100530000C040294009CCDE900B400F0D8F803B09C
:10054000BDE8F08F00200146F9E72DE9F04D81EA82
:10055000030404F0004B21F0004514464FF0000A5C
:1005600023F0004150EA050220D054EA01021DD0D8
:10057000C5F30A570246C5F31303C1F31300C1F3D1
:100580000A5640F4801543F48013A7EB0608101BAD
:10059000D64608F2FD3873EB050002D308F10108D6
:1005A00001E092185B41B8F1000F03DA0020014628
:1005B000BDE8F08D00204FF48011064684460EE021
:1005C000171B73EB050705D3121B63EB05030643EB
:1005D0004CEA010C49084FEA300092185B4150EA9E
:1005E0000107EDD152EA030012D082EA040083EA47
:1005F0000501084305D0101BAB4106D201220023A0
:1006000006E000224FF0004302E06FF001025310B9
:100610001AEB06004CEB085110EB0A0041EB0B0102
:10062000BDE8F04D00F054B8C1F30A52C1F3130114
:1006300040F2FF3341F480119A4202DA0020014671
:10064000704740F233439A42A2F2334202DC5242F4
:10065000FFF752BEFFF741BE30B5041E71F1000432
:1006600004DB4FF00044404264EB0101141E73F1BF
:10067000000405DB1C464FF00043524263EB0403C9
:10068000994208BF904230BD064C074D06E0E06835
:1006900040F0010394E8070098471034AC42F6D3C9
:1006A000FFF776FD64350608A4350608202A06DB28
:1006B000CB17203A41FA02F043EAE07306E041FA30
:1006C00002F3D040C2F1200291400843194670471E
:1006D00010B5141E73F1000408DA401C41F100014A
:1006E00092185B411A4301D120F0010010BD2DE9A1
:1006F000F04D92469B4611B1B1FA81F202E0B0FA98
:1007000080F220329046FFF7E8FD04460F4640EAAB
:100710000A0041EA0B0153465A46084313D01146DA
:1007200053EA010019D0C8F140025046FFF7E4FD3A
:1007300005460E46504659464246FFF7CEFD084351
:1007400005D0012004E020463946BDE8F08D0020A8
:10075000054346EAE0762C4337430A986305E40AEA
:10076000A0EB08000022FD0A44EA47540A3002D5F3
:1007700000200146E9E7010510196941DDE9084556
:1007800000196941BDE8F04DA2E770B58C1810F86A
:10079000015B15F0070301D110F8013B2A1106D1C6
:1007A00010F8012B03E010F8016B01F8016B5B1EE0
:1007B000F9D12B0705D40023521E0DD401F8013BBB
:1007C000FAE710F8013BCB1A921C03E013F8015B27
:1007D00001F8015B521EF9D5A142D8D3002070BDAB
:1007E000FEE710B5806B816B496D022902D00121B3
:1007F00080F8251000F046F910BD10B5846BA26A90
:10080000A06B0168CAB10A68A36A02F40022DB0780
:1008100006D12AB1C968E26A01EBC201002207E0F1
:100820000A68120319D40969E26A01EBC2010122C4
:1008300000F007FBA06A401E0EE00868000302D526
:10084000606BC86009E00868000306D4E26A606B68
:1008500000EB82000861206BA062A06A216B8842D5
:100860000BD12068C16841F00101C16020680068B7
:10087000800702D5012084F8250010BD014800F052
:1008800021B900000C6E0010014800F0FDBF00000F
:1008900084720010014800F0F7BF0000E4720010FD
:1008A000014800F0F1BF000024720010014800F080
:1008B000EBBF0000C4710010014800F0E5BF00006C
:1008C0004C6E0010014800F0DFBF00000471001002
:1008D000014800F0D9BF00006471001001681823BE
:1008E000CAB2103AB2FBF3F2054B6FF30901032AC7
:1008F0009B5CC36500D9091D8165084670470000EF
:10090000B080000810B5014600208B698A6A4FF05C
:10091000C07453B1B3F5005F15D072B1012A0CD089
:10092000022A0AD0032A09D104E01AB1012A06D00A
:10093000022A03D1C96AC90100D5012010BDC96AC4
:10094000A142FAD010BD002AF7D0012AF2D0022A23
:10095000F3D0032AF3D010BD10B504686360836838
:10096000402B036803D099600068C26010BD9A6094
:100970000068C16010BD30B50468256825F4802585
:100980002560046863608368402B036803D0996026
:100990000068C26030BD9A600068C16030BD7047B9
:1009A00072B6FEE730B5B3F5804F05D06FF07041F9
:1009B00040F82210002030BD8C690B688D682343FD
:1009C0004C688989240144EA0524234343EA014110
:1009D00050F82230014C23401943E9E70000F0CFE2
:1009E00010B50A6850F8223023F0010340F8223095
:1009F0008C68082C23D000234A682243CC681C430F
:100A00000B6922431A434B690E4C1A43CB691A43B4
:100A10000B6A1A434B6A1A438B6A1A43CB6A1A430E
:100A20000B6B1A438B691343CA6B09681A4350F85E
:100A30002130A343134340F82130002010BD402350
:100A4000DAE700007FFF0F0030B5D1E9003443EA58
:100A500004138C688D89240244EA054423430C8ADC
:100A6000074D00EB820005EB045423430C7D6D0120
:100A700005EB0464896923430B434360002030BDC8
:100A80000000F0FF704700000B4A10B50121117003
:100A90000A4A127842B1026851610068C16841F0A7
:100AA0000101C16006F01CF9BDE810404FF400716F
:100AB000034801F0ACB90000000000101000002055
:100AC000001402402DE9F041044600680569264FF4
:100AD00069074FF004060FD54661E06B40F0020055
:100AE000E06384F82560A06B0765A06B00F0B9FE99
:100AF00010B1A06BFFF775FEA80711D52168022081
:100B00004861E06B40F00100E06384F82560A06B71
:100B10000765A06B00F0A5FE10B1A06BFFF761FEAA
:100B2000E80605D5216810204861204600F061F8EC
:100B3000280705D5216808204861204600F080F983
:100B4000E8070FD020680168890703D5C16821F044
:100B50001E01C1602068C16821F00101C16020460A
:100B6000FFF792FFBDE8F081E307000870B50400CD
:100B700004D094F82500002510B109E0012070BDD3
:100B800084F82450204600F035F8204600F032F872
:100B9000022084F825002068016840F6F87291432D
:100BA0000160616960680843D4E903121143084396
:100BB000A1680843A1690843216A084321680A68BB
:100BC000104308606068102808D1A17FA08B61F3F2
:100BD0001F40E17F40EA0160216888612068C168A8
:100BE00041F01E01C160E563012084F8250000206A
:100BF00070BD7047F0B587B0064614216846FFF710
:100C00002BFB3D493068884274D13C48002501687F
:100C100041F0010101600068384900F00100091F3E
:100C20000590086840F010000860086800F01000A7
:100C30000590086840F001000860086800F00100B5
:100C40000590086840F004000860086800F004009F
:100C50000590086840F0020008600868022400F06F
:100C60000200059060208DE831000D27CDE9035783
:100C70006946234800F0CEFF50208DE83100CDE9D1
:100C8000035769461F4800F0C5FF4FF43C608DE8EC
:100C90003100CDE9035769461B4800F0BBFFC02077
:100CA0008DE83100CDE903576946184800F0B2FFDE
:100CB000184C174820604FF00070C4E90105C013BC
:100CC000C4E90350800060618000A0618011C4E924
:100CD00007052046656200F0A7FE08B1FFF760FE39
:100CE000B463002207214E20A66301F031F94E20A3
:100CF00001F020F907B0F0BD000005503438024083
:100D000000100240000002400008024000040240BF
:100D1000286402404C6E0010F8B5044690F8240098
:100D2000012827D0012084F82400022584F82550CA
:100D300025682E6846F480462E6025682E6826F0C9
:100D400002062E6025682E680E432E60A56B1D4995
:100D5000E963A66B1C4DF564A66B00253565A5629D
:100D600006042563B34207D22168A06B283100F046
:100D7000C5FE1FE00220F8BDA76B7964A062E362A4
:100D8000626305E0E06A4008E062A06A4000A06299
:100D9000E06AB042F6D2A06A801EA062A06A206318
:100DA000E06A02EB8003E06A00902168A06B2831C2
:100DB00000F04EF821680A6842F001020A6084F8E7
:100DC0002450F8BDFB070008E3070008F8B5044607
:100DD0001A480E2100250068B0FBF1F0009094F84D
:100DE0002400012827D0012684F82460022084F8FA
:100DF00025002068016821F0010101602068009948
:100E00004A1E009205D2E16B41F02001E163032507
:100E100002E00168C907F2D1016821F48041016054
:100E2000A06B243400F0D4FCA069A061667000209F
:100E300020702846F8BD0220F8BD00000C000020FC
:100E40007047006812B1016100207047C160FBE784
:100E50002DE9F84F044600200A9D0090A0684FF449
:100E6000807A802817D0E06BB8B1606CA8B1E06CD4
:100E700098B194F83400012813D0012084F834008C
:100E800094F835600020012E0DD084F83400022043
:100E90000090BDE8F88F504600E0402060650120DA
:100EA000F7E70220F5E7022684F8356060652068E0
:100EB000066846F480260660206803612B462046BB
:100EC000FFF74AFDDFF800844FF4006B4FF4001E7B
:100ED000FE48FD4AFD4BFC4DFC4EFB4FDFF8ECC3DA
:100EE000DFF8E4932168483A603318351836303F0C
:100EF0000CF1780C09F13009414534D9814205D013
:100F0000914203D0994201D0A94201D1202125E08C
:100F1000B14205D0B94203D0614501D0494501D164
:100F200059461BE0DFF8A48308F13008414511D091
:100F3000DFF89483A8F1180841450BD0DFF88C83C3
:100F400008F19008414505D0DFF87C8308F1480896
:100F5000414501D1714601E04FF00061DFF868833F
:100F6000A8F14C0839E0DFF8648308F1A80841458E
:100F700036D9814205D0914203D0994201D0A9428D
:100F800001D1202125E0B14205D0B94203D061450D
:100F900001D0494501D159461BE0DFF8308308F103
:100FA0003008414511D0DFF82083A8F118084145E9
:100FB0000BD0DFF8188308F19008414505D0DFF821
:100FC000088308F14808414501D1714601E04FF01E
:100FD0000061DFF8F482A8F15008C8F8001072E050
:100FE000DFF8E88208F14808414536D9814205D04A
:100FF000914203D0994201D0A94201D1202125E09C
:10100000B14205D0B94203D0614501D0494501D173
:1010100059461BE0DFF8B48208F13008414511D091
:10102000DFF8A482A8F1180841450BD0DFF89C82B4
:1010300008F19008414505D0DFF88C8208F1480896
:10104000414501D1714601E04FF00061DFF87C823B
:10105000A8F11008C8F80C1035E0814205D0914283
:1010600003D0994201D0A94201D1202125E0B1420B
:1010700005D0B94203D0614501D0494501D1594657
:101080001BE0DFF8488208F13008414511D0DFF855
:101090003882A8F1180841450BD0DFF8308208F1FA
:1010A0009008414505D0DFF8208208F14808414505
:1010B00001D1714601E04FF00061DFF81082A8F124
:1010C0001008C8F80810DFF8008221684FF4806B20
:1010D0004FF4801E414534D9814205D0914203D05E
:1010E000994201D0A94201D1102125E0B14205D099
:1010F000B94203D0614501D0494501D159461BE0B1
:10110000DFF8C88108F13008414511D0DFF8B88117
:10111000A8F1180841450BD0DFF8B08108F190081C
:10112000414505D0DFF8A08108F14808414501D1CB
:10113000714601E04FF08061DFF88C81A8F14C0826
:1011400039E0DFF8888108F1A808414536D98142A5
:1011500005D0914203D0994201D0A94201D110217A
:1011600025E0B14205D0B94203D0614501D04945DF
:1011700001D159461BE0DFF8548108F130084145A0
:1011800011D0DFF84481A8F1180841450BD0DFF8F1
:101190003C8108F19008414505D0DFF82C8108F129
:1011A0004808414501D1714601E04FF08061DFF808
:1011B0001881A8F15008C8F8001072E0DFF80C811F
:1011C00008F14808414536D9814205D0914203D003
:1011D000994201D0A94201D1102125E0B14205D0A8
:1011E000B94203D0614501D0494501D159461BE0C0
:1011F000DFF8D88008F13008414511D0DFF8C88009
:10120000A8F1180841450BD0DFF8C08008F190081C
:10121000414505D0DFF8B08008F14808414501D1CB
:10122000714601E04FF08061DFF8A080A8F110085E
:10123000C8F80C1035E0814205D0914203D09942A4
:1012400001D0A94201D1102125E0B14205D0B94217
:1012500003D0614501D0494501D159461BE0DFF873
:101260006C8008F13008414511D0DFF85C80A8F1AE
:10127000180841450BD0DFF8548008F1900841452B
:1012800005D0DFF8448008F14808414501D1714696
:1012900001E04FF08061DFF83480A8F11008C8F851
:1012A0000810DFF8248021684FF4007B4FF4002EF3
:1012B000414534D9814205D0914203D0994201D0B1
:1012C000A94205D1082125E058640240106002407F
:1012D000B14205D0B94203D0614501D0494501D1A1
:1012E000594617E0DFF8E08441450FD0DFF8DC8491
:1012F00041450BD0DFF8D08408F16008414505D0A6
:10130000DFF8C88408F16008414501D1714601E069
:101310004FF00071DFF8B484A8F1340835E0DFF84D
:10132000A88408F17808414532D9814205D091421C
:1013300003D0994201D0A94201D1082121E0B14254
:1013400005D0B94203D0614501D0494501D1594684
:1013500017E0DFF8748441450FD0DFF87084414511
:101360000BD0DFF8648408F16008414505D0DFF850
:101370005C8408F16008414501D1714601E04FF0FD
:101380000071DFF84884A8F13808C8F800106AE056
:10139000DFF8348408F11808414532D9814205D07C
:1013A000914203D0994201D0A94201D1082121E004
:1013B000B14205D0B94203D0614501D0494501D1C0
:1013C000594617E0DFF8008441450FD0DFF8FC8371
:1013D00041450BD0DFF8F08308F16008414505D0A6
:1013E000DFF8E88308F16008414501D1714601E06A
:1013F0004FF00071DFF8D083A8F14008C8F80C1056
:1014000031E0814205D0914203D0994201D0A942F6
:1014100001D1082121E0B14205D0B94203D0614594
:1014200001D0494501D1594617E0DFF89C83414579
:101430000FD0DFF8988341450BD0DFF88C8308F19B
:101440006008414505D0DFF8848308F16008414514
:1014500001D1714601E04FF00071DFF86C83A8F113
:101460004008C8F80810DFF86483216808F11808FC
:101470004FF4802B4FF0807E41452FD9814205D01B
:10148000914203D0994201D0A94201D1042120E028
:10149000B14205D0B94203D0614501D0494501D1DF
:1014A000514616E0DFF8208341450FD0DFF81C835A
:1014B00041450BD0DFF8108308F16008414505D0A5
:1014C000DFF8088308F16008414501D1594600E082
:1014D0007146DFF8F882A8F1340834E0DFF8E882DA
:1014E00008F17808414531D9814205D0914203D0B5
:1014F000994201D0A94201D1042120E0B14205D096
:10150000B94203D0614501D0494501D1514616E0A9
:10151000DFF8B48241450FD0DFF8B08241450BD0EF
:10152000DFF8A48208F16008414505D0DFF89C820D
:1015300008F16008414501D1594600E07146DFF8E5
:101540008C82A8F13808C8F8001068E0DFF87882CB
:1015500008F11808414531D9814205D0914203D0A4
:10156000994201D0A94201D1042120E0B14205D025
:10157000B94203D0614501D0494501D1514616E039
:10158000DFF8448241450FD0DFF8408241450BD05F
:10159000DFF8348208F16008414505D0DFF82C827D
:1015A00008F16008414501D1594600E07146DFF875
:1015B0001882A8F14008C8F80C1030E0814205D02C
:1015C000914203D0994201D0A94201D1042120E0E7
:1015D000B14205D0B94203D0614501D0494501D19E
:1015E000514616E0DFF8E08141450FD0DFF8DC819D
:1015F00041450BD0DFF8D08108F16008414505D0A6
:10160000DFF8C88108F16008414501D1594600E082
:101610007146DFF8B481A8F14008C8F80810DFF877
:10162000AC81216808F118084FF4803A4FF4800B20
:10163000414527D9814205D0914203D0994201D03A
:10164000A94201D101201AE0B14205D0B94203D02C
:10165000614501D0494501D1402010E05A488142FE
:101660000AD05A48814207D057486030814203D09F
:1016700056486030814201D1504600E058465349F7
:1016800034392CE0DFF8408108F17808414528D949
:10169000814205D0914203D0994201D0A94201D1A3
:1016A00001201AE0B14205D0B94203D0614501D012
:1016B000494501D1402010E0434881420AD04348C7
:1016C000814207D040486030814203D03F486030BB
:1016D000814201D1504600E058463C493839086003
:1016E00056E0DFF8E48008F11808414528D9814226
:1016F00005D0914203D0994201D0A94201D10120E5
:101700001AE0B14205D0B94203D0614501D0494544
:1017100001D1402010E02C4881420AD02B48814260
:1017200007D029486030814203D028486030814288
:1017300001D1504600E0584623494039C86027E0AF
:10174000814205D0914203D0994201D0A94201D1F2
:1017500001201AE0B14205D0B94203D0614501D061
:10176000494501D1402010E0174881420AD017486E
:10177000814207D014486030814203D01348603062
:10178000814201D1504600E058460F4940398860F7
:101790002068016841F0160101602068416941F04C
:1017A00080014161206C08B9A06C20B120680168FB
:1017B00041F0080101602068016841F00101016009
:1017C0000098BDE8F88F000040600240406402408D
:1017D0002DE9F0410446876D00F026FB064694F89B
:1017E00035000025022806D08020606584F834503A
:1017F0000120BDE8F0812068016821F01601016038
:101800002068416921F080014161206C08B9A06C19
:1018100020B12068016821F008010160206801689A
:1018200021F0010101600CE000F0FEFA801B0528A8
:1018300007D920206065032084F8350084F83450EF
:10184000D7E720680068C007EED194F85C103F200D
:101850008840B860012084F8350084F834500020B6
:10186000C7E790F83510022903D080214165012097
:101870007047052180F835100068016821F00101EA
:1018800001600020704700002DE9F84304464FF046
:101890000009CDF8009063484FF41651A56D00681B
:1018A000B0FBF1F72E6894F85C10082000FA01F103
:1018B00031420FD021680A6852070BD50A6822F01E
:1018C00004020A6094F85C108840A860606D40F0E3
:1018D0000100606594F85C104FF0010808FA01F00F
:1018E000304208D021684969090604D5A860606DB6
:1018F00040F00200606594F85C100420884030429B
:1019000008D021680968890704D5A860606D40F097
:101910000400606594F85C1010208840304218D0B4
:1019200021680968090714D5A8602068016849037F
:1019300004D50068000308D5A16C07E00168C9055B
:1019400003D4016821F008010160216C09B120462F
:10195000884794F85C1020208840304231D02168BC
:101960000968C9062DD5A86094F8350005282068B7
:10197000016806D0490347D5006800031DD4616C97
:101980001CE021F0160101602068416921F080010E
:101990004161206C08B9A06C20B12068016821F079
:1019A0000801016094F85C103F208840A86084F82A
:1019B000358084F83490216D1FE0E16B09B1204639
:1019C0008847606D00282BD0606DC00714D00520BB
:1019D00084F835002068016821F001010160009859
:1019E000401C0090B84203D820680068C007F6D1B8
:1019F00084F8358084F83490E16C002910D001B06F
:101A00002046BDE8F04308470168C905D5D4016800
:101A100021F01001016084F8358084F83490CCE71F
:101A2000BDE8F8830C0000202DE9F041044600F0E9
:101A3000FBF906465CB1022084F83500002584F8E5
:101A400034502068016821F0010101600DE001209F
:101A5000BDE8F08100F0E8F9801B052805D92020B9
:101A60006065032084F83500F2E720680068C0074D
:101A7000F0D12268116820480140D4E901031843DD
:101A8000D4E903363343184363691843A369184301
:101A9000E3691843236A18430843616A042903D1A0
:101AA000D4E90B1319430843106020684069666A43
:101AB00020F0070130460E43012704280CD1A06A0C
:101AC0000643E06A40B12046FEF71CFF20B14020EB
:101AD000606584F83570BAE7206846612046FEF7F5
:101AE000FDFE94F85C203F2191408160656584F89B
:101AF00035700020ACE700003F8010F02DE9F04188
:101B00000446866D90F83400002501280DD0012090
:101B100084F8340094F835700020012F07D084F841
:101B2000340002252846BDE8F0810220FBE70227A9
:101B300084F8357060652046FEF71DFF94F85C1050
:101B40003F208840B0602068016841F016010160C4
:101B5000206C20B12068016841F008010160206814
:101B6000016841F001010160DCE70000F0B587B0D9
:101B700014216846FEF770FB2048016800293AD11D
:101B8000012101601E480024016841F0010101604B
:101B90000068022500F0010005904FF23F00CDE9FA
:101BA000000502AA03260C2782E8D00069461548E2
:101BB00000F030F840F23F40CDE9000502AA694646
:101BC00082E8D000104800F025F84FF68370CDE988
:101BD000000502AA694682E8D0000C4800F01AF815
:101BE0004FF63370CDE9000502AA694682E8D000BD
:101BF000074800F00FF807B0F0BD00001800001013
:101C00003838024000140240001802400010024020
:101C1000000C02402DE9F84FDFF8BCA1002201259D
:101C200003264FF00F090AF1040BAAF1040E00BFBE
:101C30000B6805FA02F42340A34270D10F7907F034
:101C40000307012F01D0022F16D187684FEA4208FF
:101C500006FA08FC27EA0C07D1F80CC00CFA08FCBD
:101C60004CEA070CC0F808C04768A7430C79C4F3D6
:101C7000001494403C4344600C79E443A4070AD028
:101C8000C4684FEA420C06FA0CF7BC438F6807FAA7
:101C90000CF72743C7600C7904F00304022C12D11F
:101CA000D40800EB840CDCF820405707FF0E09FA3B
:101CB00007F824EA0804D1F8108008FA07F848EA7F
:101CC0000408CCF8208004684FEA420C06FA0CF7AE
:101CD000BC430F7907F0030707FA0CF727430760A7
:101CE0004C6814F4403F70D03C4C276847F4804760
:101CF0002760246822F0030704F480440094384CE1
:101D000007EB040CDCF8084897074FEA177809FA44
:101D100008F7BC43334FB84202D1002724E054E017
:101D2000314FB84201D101271EE0304FB84201D1F6
:101D3000022719E02E4FB84201D1032714E02D4F9E
:101D4000B84201D104270FE02B4FB84201D105273B
:101D50000AE02A4FB84201D1062705E0284FB842D1
:101D600001D1072700E0082707FA08F72743CCF836
:101D70000878DAF800405746D1F804C09C435FEA7F
:101D8000CC2C00D51C433C60DBF800405F46D1F80A
:101D900004C09C435FEA8C2C00D51C433C60DEF8F9
:101DA00000407746D1F804C09C435FEA8C3C00D5E4
:101DB0001C433C60084F083F3C68D1F804C09C437A
:101DC0005FEACC3C00D51C433C60521C102AFFF457
:101DD0002FAFBDE8F88F0000083C014044380240B6
:101DE00000300140000002400004024000080240B0
:101DF000000C024000100240001402400018024093
:101E0000001C02400069084000D001207047426970
:101E100021EA02030A4043EA0241816170470AB1A4
:101E2000816170470904FBE7014880687047000042
:101E300000000020024881680278114481607047E8
:101E4000000000200B4810B5016841F400710160EA
:101E5000016841F480610160016841F480710160B2
:101E6000032000F095F80F2000F006F800F04AF883
:101E7000002010BD003C024030B505461C4887B02C
:101E80000024016841F001010160006806A900F02A
:101E90000100009001A800F027F900F055F915495C
:101EA0004000B0FBF1F11548134A491E026040F2B0
:101EB000E732C0E90324C0E90114846100F03EFD6B
:101EC000040012D10D4800F0EBFD04000DD11920E3
:101ED00000F030F8102D07D200222946192000F01A
:101EE00037F80748056000E0012407B0204630BD00
:101EF0004438024040420F0000000140447300108B
:101F0000040000200A4808B5016841F480410160DE
:101F1000006800F4804000900548001F016841F00F
:101F200080510160006800F08050009008BD000002
:101F300044380240002809DB00F01F0201219140D3
:101F40004009800000F1E020C0F800117047000057
:101F5000F0B40E4B1B680C46C3F30223C3F1070514
:101F6000042D00D90425191D072901D2002300E002
:101F7000DB1E012606FA05F1491E214099409E40CC
:101F8000761E16403143F0BC01F07DBF0CED00E041
:101F9000064900F0070208684FF6FF03184040EAC0
:101FA0000220034A10430860704700000CED00E077
:101FB0000000FA052DE9F0470E46050065D0DFF870
:101FC0001481D8F80000F7B200F00700B04207D241
:101FD00088F80070D8F8000000F00700B04254D133
:101FE00028683D4C810712D5400703D5206840F48E
:101FF000E05020602878000703D5206840F4604056
:1020000020602068A96820F0F0000843206028784C
:10201000C0072DD0304968680839012812D002283D
:1020200013D0032811D00968890700292DDA216807
:1020300021F0030101432160FFF7F6FE814641F2E2
:10204000883A0EE009688903EFE709688901ECE73F
:10205000FFF7EAFEA0EB0901514502D90320BDE8D4
:10206000F0872068696800F00C00B0EB810FEFD1B9
:10207000D8F80010404601F00701B14207D90770B7
:10208000006800F00700B04201D00120E7E728789F
:10209000400705D52068E96820F4E0500843206037
:1020A0002878000706D52068296920F4604040EAB6
:1020B000C100206000F058F82168084AC1F30311FC
:1020C000515CC8400649086006480068FFF7D4FE26
:1020D0000020C4E7003C024008380240B8800008F5
:1020E0000C000020040000200F2202600C4A13683C
:1020F00003F003034360136803F0F0038360136885
:1021000003F4E053C36012684FF4E05303EAD202D1
:1021100002610448006800F0070008607047000092
:1021200008380240003C024004480549006809683C
:10213000044AC1F38221515CC84070470C00002062
:1021400008380240C880000804480549006809684A
:10215000044AC1F34231515CC84070470C00002072
:1021600008380240C8800008154810B5006810F013
:102170000C02144813D04110042A0FD0082A0ED1A3
:102180000F4C241F2268236802F03F025B0207D530
:102190002068C0F38810A0FB010106E0084610BDCE
:1021A0002168C1F38811A1FB00010023FEF70AF8A2
:1021B0002168C1F30141491C4900B0FBF1F010BD99
:1021C000083802400024F4002DE9F84F04006ED0D6
:1021D0002078DFF84C93C007A9F104054AD009F133
:1021E00004000168C1F38101012908D00068C0F32F
:1021F000810002280AD1D9F80000400206D52868DB
:10220000800337D560680028E1D033E06068B0F51E
:10221000803F10D0B0F5A02F286810D020F4803077
:102220002860286820F4802028606068A8B1FFF743
:10223000FBFD06460DE0286840F48030F4E740F4EA
:1022400080202860F7E700BFFFF7EEFD801B6428C1
:1022500073D828688003F7D50CE0FFF7E5FD064644
:1022600005E000BFFFF7E0FD801B6428F0D8286878
:102270008003F7D42078DFF8AC8280074FF0000AA3
:102280003ED5A748001D016811F00C0F08D000686A
:10229000C0F3810002280BD1D9F80000400207D416
:1022A0002868800716D5E068012800D112E033E1E4
:1022B000E068B8B10120C8F80000FFF7B5FD064698
:1022C00005E000BFFFF7B0FD801B0228C0D82868DA
:1022D0008007F7D52868216920F0F80040EAC1009E
:1022E00028600DE0C8F800A0FFF79EFD064604E058
:1022F000FFF79AFD801B02281FD828688007F7D4B3
:102300002078000722D5864F87486169703771B100
:1023100001210160FFF788FD064604E0FFF784FD18
:10232000801B022809D838688007F7D50EE0C0F86E
:1023300000A0FFF779FD064605E082E0FFF774FD97
:10234000801B02287DD838688007F7D420784007A2
:1023500068D5DFF8CCB100270BF13C0BDBF80000AF
:10236000C0000BD4DBF8001041F08051CBF8001016
:10237000DBF80000012700F0805000906B4E3068C1
:10238000C00510D4306840F480703060FFF74CFD19
:10239000009005E0FFF748FD0099401A022850D848
:1023A0003068C005F6D55E4EA0686C3601280FD0A7
:1023B0000528306810D020F001003060306820F02F
:1023C00004003060A068B8B1FFF72EFD00900FE068
:1023D000306840F00100F4E740F004003060F7E7B7
:1023E000FFF722FD0099411A41F28830814266D8F8
:1023F00030688007F4D50EE0FFF716FD009007E087
:10240000FFF712FD0099411A41F28830814256D8F7
:1024100030688007F4D42FB1DBF8001021F0805130
:10242000CBF80010A069C8B33D49091D0968C1F384
:10243000810102294AD00228504607D0C8F860001E
:1024400000E03CE0FFF7F0FC04463BE04746C8F8FC
:102450006000FFF7E9FC064605E000BFFFF7E4FC7B
:10246000801B02282BD828688001F7D4D4E9070103
:102470000843A16A2E4A490802EB0141626A41EA17
:102480008211084394F82C1040EA0161C9F8001049
:1024900001203866FFF7C8FC044606E03EE000BFB6
:1024A000FFF7C2FC001B022809D828688001F7D575
:1024B00034E000BFFFF7B8FC001B022802D903205C
:1024C000BDE8F88F28688001F4D427E00128F7D010
:1024D000D9F80000E26900F4800191421CD1226A1F
:1024E00000F03F01914217D147F6C071626A014086
:1024F000B1EB821F10D1A26A4FF0FF3300F44031DC
:1025000003EB5202B1EB024F06D194F82C1000F00D
:102510007060B0EB016F01D00120D1E70020CFE760
:102520000438024000004742800E474200700040DD
:102530000000FFFF70B5040009D0606A002540B1BB
:1025400025616561A56294F8510040B10CE001205D
:1025500070BD6068B0F5827FF4D0E561F2E784F881
:102560005050204600F044F8022084F851002068C2
:10257000016821F040010160A088218900F4827087
:1025800001F404410843A18901F400610843217C5E
:1025900001F002010843217D01F001010843218B74
:1025A00001F400710843217F01F03801084394F8D9
:1025B000201001F080010843218D01F400510843EF
:1025C00021680860A069042101EA104094F82410F1
:1025D00001F010010843216848602068C16921F4B6
:1025E0000061C1616565012084F85100002070BD63
:1025F00010B586B0044614216846FDF72DFE134938
:102600002068884220D112480021026842F480529A
:102610000260006800F4805005900D48143802688C
:1026200042F002020260006800F0020005903820CB
:1026300000900220CDE901010320039005200490C1
:1026400069460448FFF7E6FA06B010BD00300140C5
:1026500044380240000402402DE9FF4F81B01D467E
:10266000934604464FF001090E9EFFF7DDFB074637
:1026700094F851006168012806D0B1F5827F3CD101
:10268000A168C9BB042838D10298002871D0BBF1D9
:10269000000FFBD0002DF9D094F8500001282CD069
:1026A0004FF0010A84F850A094F85100042802D099
:1026B000052084F851004FF00008C4F85480C4F895
:1026C00038B0E587A58702992163E586A586C4F819
:1026D0004080C4F8448020680168490603D401683A
:1026E00041F040010160E068B0F5006F606808D01B
:1026F000F0B3012D49D081E0FFE7022005B0BDE82D
:10270000F08F08B1012D39D1206B21680088C86095
:10271000206B801C2063E08E401EE0862EE0206847
:10272000816889070FD5E18E69B1B9F1010F0AD12E
:10273000216B0988C160206B801C2063E08E401EE5
:10274000E0864FF0000920688168C9070CD0E18F4E
:1027500051B1C068A16B0880A06B801CA063E08FA2
:10276000401EE0874FF00109FFF75EFBC01B01E050
:102770000BE067E0B04201D3701C50D1E08E00281E
:10278000CDD1E08F0028CAD13EE0206B21680078CF
:102790000873206B401C2063E08E401EE0862DE015
:1027A0002068816889070FD5E18E69B1B9F1010F01
:1027B0000AD1216B09780173206B401C2063E08EE5
:1027C000401EE0864FF0000920688168C9070CD0E0
:1027D000E18F51B1C068A16B0870A06B401CA06371
:1027E000E08F401EE0874FF00109FFF71DFBC01B83
:1027F000B04202D3701C01D011E086B1E08E0028F7
:10280000CED1E08F0028CBD13A463146204601F0A8
:1028100063F850B12020606584F8508012E084F89D
:1028200051A084F85080032068E7A06818B9206898
:10283000C1688068009084F851A084F85080606D71
:102840000028F1D0012059E770B515460E46040066
:1028500003D094F8490010B107E0012070BD0020BA
:1028600084F84800204600F01DF804F108012068B3
:10287000FEF7B6F83146A2682068FEF7E5F8D4E91D
:1028800001022946236BFEF78DF82168A06851F8F4
:10289000202042F0010241F82020012084F8490064
:1028A000002070BDFFF762B97047704770B590F8AF
:1028B0003C20012A32D0012480F83C40022280F8DA
:1028C0003D2003685A689D6822F070060A6832430A
:1028D0005A60134B02689A4214D0B2F1804F11D063
:1028E000104B9A420ED0104B9A420BD00F4B9A428B
:1028F00008D00F4B9A4205D00E4B9A4202D00E4B95
:102900009A4204D1496825F080031943916080F808
:102910003D40002180F83C10084670BD022070BD8B
:10292000000001400004004000080040000C00408E
:1029300000040140004001400018004010B50400B0
:1029400003D094F83D0010B107E0012010BD002035
:1029500084F83C00204600F01FF8022084F83D0077
:10296000211D206801F0BAF8012084F8460084F89F
:102970003E0084F83F0084F8400084F8410084F869
:10298000420084F8430084F8440084F8450084F849
:102990003D00002010BD000008B51F4A01681F4817
:1029A00091420ED1016841F01001016000680022DF
:1029B00000F01000009011463620FFF7C9FA3620CB
:1029C00024E0174A91420ED1016841F020010160D4
:1029D0000068002200F02000009011463720FFF729
:1029E000B7FA372012E00F48814213D10B48001D7F
:1029F000016841F4003101600068002200F40030F9
:102A000000900F211920FFF7A3FA1920BDE8084014
:102A1000FFF790BA08BD00000010004040380240A7
:102A2000001400400044014090F83D10012901D0FD
:102A300001207047022180F83D100068114988424A
:102A400014D0B0F1804F11D00F4988420ED00F49F9
:102A500088420BD00E49884208D00E49884205D0E2
:102A60000D49884202D00D49884204D1816801F0A5
:102A70000701062903D0016841F00101016000202F
:102A800070470000000001400004004000080040C2
:102A9000000C0040000401400040014000180040CC
:102AA00090F83D10012901D001207047022180F8E3
:102AB0003D100168CA6842F00102CA60006811490D
:102AC000884214D0B0F1804F11D00F4988420ED007
:102AD0000E4988420BD00E49884208D00D498842E1
:102AE00005D00D49884202D00C49884204D1816842
:102AF00001F00701062903D0016841F001010160DE
:102B00000020704700000140000400400008004021
:102B1000000C00400004014000400140001800404B
:102B200001680A6A41F211131A4207D10A6A9B101E
:102B30001A4203D10A6822F001020A60012180F8DA
:102B40003D100020704770472DE9F04104460068B1
:102B5000C66805694FF00007A90713D5B10711D55D
:102B6000F91E0161012020772068806980072046D6
:102B700002D0FFF7E8FF04E000F07EF8204600F006
:102B80007CF82777680716D5700714D521686FF091
:102B900004000861022020772068806910F4407FDB
:102BA000204602D0FFF7CFFF04E000F065F8204692
:102BB00000F063F82777280715D5300713D521686B
:102BC0006FF008000861042020772068C069800742
:102BD000204602D0FFF7B7FF04E000F04DF8204692
:102BE00000F04BF82777E80616D5F00614D52168D3
:102BF0006FF010000861082020772068C06910F489
:102C0000407F204602D0FFF79EFF04E000F034F83A
:102C1000204600F032F82777E80708D0F00706D002
:102C200021686FF001000861204600F027F82806AF
:102C300008D5300606D521686FF08000086120466F
:102C4000FFF732FE680608D5700606D521686FF0DA
:102C500040000861204600F073F8A8060AD5B006C7
:102C600008D521686FF0200008612046BDE8F041DA
:102C7000FFF71BBEBDE8F081704770472DE9FF47A5
:102C800024498146884239D1DFF88CA0DAF8000067
:102C9000401CCAF80000B0F57A7F2FD16421AAF158
:102CA000C800FDF7D9FADFF87480D8F80800FDF7FE
:102CB000EBFA06460F46D8F80400FDF7E5FA04469D
:102CC0000D46D8F80000FDF7DFFA41EC100B8DE857
:102CD000F00053EC102B12A1AAF1C80001F0ACF8DF
:102CE00082B2AAF1C801134800F042FB0021CAF8E1
:102CF00000104FF480611048FFF789F80F49D9F8A8
:102D00000000884203D1BDE8FF47FFF793B8BDE854
:102D1000FF870000E46F001068210010006E0010B3
:102D20005B305D25662C5B315D25662C5B325D2555
:102D3000660D0A007470001000140240000001408B
:102D40007047704770470000F8B50168044608688E
:102D5000CA684B6910F00F0F4FF0000559D003F00F
:102D6000010602F49077374365D0C10705D0D1053D
:102D700003D5616C41F001016164410705D5D907B4
:102D800003D0616C41F002016164810705D5D90768
:102D900003D0616C41F004016164010707D502F0C2
:102DA0002001314303D0616C41F008016164616C22
:102DB00000293AD0800604D5900602D5204600F0BE
:102DC00023FF20684069616CC0F38010090700D4BC
:102DD00060B3204600F0F1FE20684069400621D52E
:102DE0002068143050E8001F21F0400140E8001234
:102DF000002AF5D1E06BA8B172490165E06BFEF7DE
:102E000030FD002811D0E06B016D01B0BDE8F0404D
:102E1000084783060FD593060DD52046BDE8F84038
:102E200000F0F2BE2046FFF78DFFF8BD2046FFF709
:102E300089FF6564F8BD266B2023012E7ED1C6066E
:102E40007CD5D6067AD508684868009048694FF066
:102E5000020640064DD5E26B106840684FF480775B
:102E60000004000C3AD0A18D814237D9E085D069A9
:102E7000B8422DD020680C3050E8001F21F480713A
:102E800040E80012002AF5D12068143050E8001FF5
:102E900021F0010140E80012002AF5D12068143029
:102EA00050E8001F21F0400140E80012002AF5D14F
:102EB00084F84230256320680C3050E8001F21F070
:102EC000100140E80012002AF5D1E06BFEF780FC0B
:102ED0006663A08DE18D401A81B206E0A18D81422A
:102EE000A8D1D069B842A5D166632046FFF729FF73
:102EF000F8BDA08DE18D401A81B2E08D0028F7D099
:102F00000029F5D020680C3050E8002F22F4907290
:102F100040E80027002FF5D12068143050E8002F3A
:102F200022F0010240E80027002FF5D184F842305A
:102F3000256320680C3050E8002F00E006E022F006
:102F4000100240E80023002BF3D1CDE705062BD576
:102F5000150629D594F841002128C9D1A068B0F5FB
:102F6000805F01D12069B0B1206A411C21622168D3
:102F700000784860E08C401E0004000CE084B7D16B
:102F80002068C16821F08001C1602068C16841F0FB
:102F90004001C160F8BD206A0088C0F308004860A5
:102FA000206A801C2062E5E74006F3D55006F1D583
:102FB000CA68204622F04002CA6084F8413000F01E
:102FC000F0F9F8BDAD3B000870B5040004D094F8EA
:102FD0004100002510B106E0012070BD84F840508A
:102FE000204600F023F8242084F841002068C168BE
:102FF00021F40051C160204600F068FE206801699C
:1030000021F4904101612068416921F02A01416168
:103010002068C16841F40051C1606564202084F8D3
:10302000410084F842006563002070BD2DE9F04F37
:1030300087B0054614216846FDF70EF9A548DFF86C
:1030400090820221D5F800C003220723DFF888E22E
:1030500000248E0607154FF04009C44564D1DFF8FF
:1030600074C20CF1140CDCF8008048F01008CCF8A5
:103070000080DCF800C00CF0100CCDF814C0D0F8C3
:1030800000C04CF0010CC0F800C0006800F0010066
:10309000059050028DE8130069467046CDE9032380
:1030A000FEF7B8FDDFF838828C494046C8F80010BA
:1030B000C0E90164C0E90347C8F81440C8F81840E3
:1030C000C8F81C40C8F82040C8F82440FEF7ACFC03
:1030D00008B1FDF765FCC5F83C80C8F83850DFF84A
:1030E00000827E4908F1600840467831C0E9034714
:1030F000C8F81440C8F81840C8F81C40C8F8204068
:1031000088E84202C8F82440FEF78EFC08B1FDF7BB
:1031100047FCC5F83880002206212520C8F8385021
:10312000FEF716FF252065E0DFF8B881DFF8A4B1CF
:10313000C4450BF1100B62D1DBF80080A24648F4C5
:103140000038CBF80080DBF800C00CF4003CCDF870
:1031500014C0D0F800C04CF0010CC0F800C00068EA
:1031600000F0010005900C208DE8130069467046C0
:10317000CDE90323FEF74EFDDFF864815A4908F1DB
:10318000C0084046C0E90347C8F81440C8F81840D2
:10319000C8F81C40C8F8204088E84202C8F824401B
:1031A000FEF742FC08B1FDF7FBFB4F484F4CC5F85A
:1031B00038801838C8F83850C4E90006C4F808A0A8
:1031C000C4E903A7C4F814A0C4F818A0C4F81CA04C
:1031D000C4F820A02046C4F824A0FEF725FC08B1BE
:1031E000FDF7DEFBEC63002211462620A563FEF707
:1031F000AFFE2620FEF79EFE07B0BDE8F08FDFF899
:10320000F080C445F8D1DBF8008048F48028CBF882
:103210000080DBF800C00CF4802CCDF814C0D0F88E
:1032200000C04CF0020CC0F800C0006800F00200C2
:1032300005904FF440608DE8130069462D48CDE9B4
:103240000323FEF7E7FCDFF8A480274908F16008B4
:1032500078394046C8F80010C0E90164C0E9034766
:10326000C8F81440C8F81840C8F81C40C8F82040F6
:10327000C8F82440FEF7D8FB08B1FDF791FBC5F86C
:103280003C80C8F83850DFF86480174908F1C0085E
:1032900040464839C0E90347C8F81440C8F8184008
:1032A000C8F81C40C8F8204088E84202C8F824400A
:1032B000FEF7BAFB08B1FDF773FBC5F838800022B2
:1032C00006212720C8F83850FEF742FE272091E754
:1032D00000100140303802400000024040640240CB
:1032E0000471001000440040A060024024720010ED
:1032F000004800400004024090F84230202B01D0EA
:103300000220704721B11AB10023036300F064BDAD
:103310000120704700681349884222D1124901F107
:103320000C008A7803780AB9A52B14D10E4808300E
:103330008354521CD2B28A70042A0CD100228A70A3
:103340000278A52A07D1C2785A2A04D14278807817
:10335000904200D14A70044901220C310348FFF722
:10336000CBBF704700440040000000107470001094
:1033700090F84130202B01D00220704779B172B112
:1033800001628284C28400214164212180F84110BD
:103390000068C16841F08001C160002070470120D1
:1033A00070477047FEE7000010B5A0B1012818D0A3
:1033B00002281CD0032820D164211048FCF74CFFC0
:1033C0000FA10E4800F038FD82B2BDE810400B4955
:1033D0000E48FFF7CDBF64210848FCF73DFF0CA164
:1033E000EFE764210548FCF737FF0CA1E9E764210A
:1033F0000248FCF731FF0CA1E3E710BD04210010E7
:1034000070302E7069633D33FFFFFF00BC70001009
:1034100070302E7069633D30FFFFFF0070302E70FA
:1034200069633D31FFFFFF0070302E7069633D32EC
:10343000FFFFFF000C4810B50A490160002120225F
:10344000C0E90112C160016141618161082101622D
:10345000FDF78CFB002803D0BDE81040FDF7A0BAB3
:1034600010BD0000000005500C6E0010254808B586
:10347000016841F480010160016801F4800100915C
:10348000016841F4001101600068002200F400109E
:10349000009011460C20FEF75BFD0C20FEF74AFD64
:1034A000002211460E20FEF753FD0E20FEF742FDCE
:1034B000002211461020FEF74BFD1020FEF73AFDCA
:1034C000002211461120FEF743FD1120FEF732FDC8
:1034D000002211463920FEF73BFD3920FEF72AFD78
:1034E000002211463A20FEF733FD3A20FEF722FD76
:1034F000002211464620FEF72BFDBDE8084046207D
:10350000FEF718BD3038024000B587B01C21684670
:10351000FCF7A2FE16484FF0204110220160154929
:103520004160042181600021C160C0E90412816111
:10353000C16113020162C0E90913C1620163416301
:10354000816341640F20CDE9001002AB092083E8BC
:1035500007001120CDE90501002269460448FFF764
:1035600073F9002801D0FDF71BFA07B000BD000079
:10357000AC6E0010040100A02DE9F04F87B01421BB
:103580006846FCF769FE5E480024016841F01001BE
:103590000160016801F010010591016841F020010E
:1035A0000160016801F020010591016841F080018E
:1035B0000160016801F080010591016841F004019A
:1035C0000160016801F004010591016841F0010109
:1035D0000160016801F001010591016841F04001BD
:1035E0000160016801F040010591016841F00201AC
:1035F0000160016801F002010591016841F00801D4
:1036000001600068DFF8FCA000F008004FF4C0651E
:103610000590012229465046FEF701FCDFF8E8B08C
:10362000012211465846FEF7FAFB4FF4804700226C
:1036300039463648FEF7F3FB4FF4807800224146C6
:103640003348FEF7ECFB0022C0213248FEF7E7FBCF
:103650004FF40249002249462F48FEF7E0FB1020B4
:1036600002268DE8510069462C48FEF7D3FA0095F2
:103670000125CDE90154694650460394FEF7CAFA84
:103680000095CDE90154694658460394FEF7C2FA05
:10369000CDE9005469461E480296FEF7BBFA009732
:1036A000CDE90154694619480394FEF7B3FACDF801
:1036B0000080CDE90154694615480394FEF7AAFA43
:1036C00040200090CDE90154694612480394FEF76A
:1036D000A1FA802000901120CDE9010469460D482F
:1036E0000394FEF797FACDF80090CDE901546946AE
:1036F00009480394FEF78EFA07B0BDE8F08F00008A
:103700003038024000140240000802400004024029
:1037100000000240000C024000180240001002406D
:10372000104810B50E4901604FF4827141600021CC
:1037300002228160C0E903120122426152028261C9
:103740001022C0E90721416281620A21C162FEF7AD
:10375000F1FE002803D0BDE81040FDF721B910BDEF
:1037600000300140FC6E00100B4810B509490160A3
:1037700053214160002140F2E732C0E902120161A9
:103780008161FFF7DBF8002803D0BDE81040FDF7AA
:1037900007B910BD00440140E46F00101CB50024BF
:1037A0000E4800940C49019401605321C0E90114B2
:1037B0004FF6FF718461C160FFF7C0F808B1FDF7F3
:1037C000EFF80094694605480194FFF76FF8002868
:1037D00001D0FDF7E5F81CBD00100040546F00104B
:1037E0001CB500240F4800940D490194016042F279
:1037F000CF01C0E9011442F20F718461C160FFF78B
:103800009DF808B1FDF7CCF800946946054801948D
:10381000FFF74CF8002801D0FDF7C2F81CBD0000EE
:10382000001400409C6F00100C4810B50A4901605C
:103830004FF461214160002181600C22C160C0E928
:1038400004128161C161FFF7BFFB002803D0BDE80E
:103850001040FDF7A5B810BD001001402C700010FD
:103860000C4810B50A4901604FF41651416000211F
:1038700081600C22C160C0E904128161C161FFF75F
:10388000A3FB002803D0BDE81040FDF789B810BDA8
:1038900000440040747000100C4810B50A490160E3
:1038A0004FF416514160002181600C22C160C0E9D3
:1038B00004128161C161FFF787FB002803D0BDE8D6
:1038C0001040FDF76DB810BD00480040BC700010FE
:1038D000FEE7FEE770470000F8B515460E460B46BA
:1038E000009204460122022100F02CF8A0B91348EE
:1038F00013490068B0FBF1F04FF47A71484300902F
:103900006068B0F5827F0DD13346002280212046C9
:10391000009500F017F870B1606D40F02000606510
:103920000320F8BD009830B1401E009020688068E8
:10393000C0430006F6D50020F8BD00000C000020B2
:1039400000366E012DE9F8431E469146884604462E
:10395000089DFEF769FA401B351AFEF765FA07461F
:1039600026480068C0F3CB3068430AE0701C09D0D9
:10397000FEF75AFAC01BA8420FD275B10098B8B32F
:10398000401E00902068816838EA010033D0002191
:103990004945EBD10020BDE8F8832068416821F05B
:1039A000E00141606068B0F5827F0BD1A068B0F59E
:1039B000004F02D0B0F5806F04D12068016821F07B
:1039C00040010160A06AB0F5005F09D1206801687C
:1039D00021F4005101602068016841F40051016048
:1039E000012084F85100002084F850000320D2E721
:1039F000FFE70025C6E70121CAE700000C00002010
:103A00007047704730B593B030216846FCF724FC0E
:103A100014210CA8FCF720FC1D480025016841F08A
:103A200080510160006800F08050119019480168D1
:103A300041F4804101600068022400F4804011904C
:103A400001200090000401908001CDE9064008AA01
:103A50000420A82182E813000B906846FEF7B4FB0F
:103A600008B172B6FEE70CA90F2081E831004FF4CF
:103A7000A0500F904FF48050109005210CA8FEF735
:103A800099FA002801D072B6FEE713B030BD0000ED
:103A900040380240007000400248016841F4700163
:103AA0000160704788ED00E010B50448FFF74CF85E
:103AB000BDE810400248FFF747B80000447300100B
:103AC000E46F00100148FFF73FB80000546F00108A
:103AD0000148FFF739B800009C6F0010F0B502688C
:103AE000274B284D284E294F294C4FF0804C9842A7
:103AF00009D0604507D0A84205D0B04203D0B842F3
:103B000001D0A04204D122F0700E4A6842EA0E02AF
:103B100098421BD0604519D0A84217D0B04215D0AA
:103B2000B84213D0A04211D01A4DA8420ED01A4D5F
:103B3000A8420BD0194DA84208D0194DA84205D073
:103B4000184DA84202D0184DA84203D122F4407566
:103B5000CA682A434D6922F080022A438D68C562F3
:103B60000D688562984201D0A04201D109690163C4
:103B7000016841F004010160012141610260F0BD72
:103B8000000001400004004000080040000C00401C
:103B90000004014000400140004401400048014051
:103BA00000180040001C00400020004010B5806B51
:103BB0000021C185FFF7C6F810BD01680C3151E83E
:103BC000002F22F4907241E80023002BF5D1016808
:103BD000143151E8002F22F0010241E80023002BAC
:103BE000F5D1016B012909D101680C3151E8002F91
:103BF00022F0100241E80023002BF5D1202180F8AB
:103C0000421000210163704708B590F84210222944
:103C100001D0022008BD82684FF480539A4201D13E
:103C2000016921B1816A9A421BD04AB10AE0026857
:103C3000816A5268C2F308020A80816A891C08E01E
:103C4000026972B10268526802F07F020A70816AEA
:103C5000491C8162C18D491E0904090CC18503D02C
:103C60001BE002685268F1E70168CA6822F020028E
:103C7000CA600168CA6822F48072CA6001684A6931
:103C800022F001024A61202180F8421000214163A4
:103C9000026B012A03D0FFF73DFB002008BD016342
:103CA00001680C3151E8002F22F0100241E8002396
:103CB000002BF5D101680A68D20602D50A68496866
:103CC0000091818DFFF73DF8E7E7000070B50446ED
:103CD00000680169E26821F44051114301612169E2
:103CE000A068E26908436169114308432168CA6812
:103CF00049F20C639A430243CA6020684169A26991
:103D000021F440711143416131492068884202D059
:103D10003049884202D1FEF717FA01E0FEF704FAB3
:103D2000E2690023192164253226B2F5004F62684A
:103D300028D0A0FB0101930F9200FCF743FA014643
:103D4000B0FBF5F06FF01802504301EB800006EB7A
:103D50000010B0FBF5F000F0F002B1FBF5F002EB63
:103D60000012B1FBF5F06FF01803584301EB80002F
:103D700006EB0010B0FBF5F000F00F0021681044D6
:103D8000886070BDA0FB010192185B41FCF71AFA34
:103D90000146B0FBF5F00201B1FBF5F06FF018033E
:103DA000584301EB800006EBC000B0FBF5F000F0DB
:103DB000F80002EB4002B1FBF5F0584301EB800044
:103DC00006EBC000B0FBF5F000F00700D6E70000FE
:103DD000001001400014014081628285C2850021EB
:103DE0004164222180F84210016921B10168CA684A
:103DF00042F48072CA6001684A6942F001024A6175
:103E00000068C16841F02001C160002070470000D7
:103E10000148FEF799BF00002C7000100148FEF722
:103E200093BF0000747000100148FEF78DBF0000C2
:103E3000BC700010FEE700000FB4084B10B504A9D9
:103E400002AA039800F076FE044602A9002001F0C1
:103E5000F4F9204610BC5DF814FB00003B5200084A
:103E60004100080218BF04200A0E18BF40F00100EC
:103E70004FF07F4232EA010108BF40F00200012802
:103E800008BF052070470907090E002804DB00F170
:103E9000E02080F80014704700F00F0000F1E020EF
:103EA00080F8141D704700009FED4B0A63E000BFCF
:103EB000D2ED003A91ED004A92ED013A91ED011AEE
:103EC00004EE230AD2ED021A91ED022AD2ED032A62
:103ED000D1ED030A92ED044A01EE030AD1ED043A52
:103EE00091ED053A92ED071A02EE210A92ED052AAC
:103EF000D1ED061A00EEA20AD2ED062AD1ED070A8C
:103F000003EE840A92ED084AD1ED083A03EE020A64
:103F100092ED093A92ED0A2A01EEA20AD1ED092AA0
:103F2000D1ED0A1A00EE810A92ED0B1AD1ED0B0ABF
:103F300003EE840AD2ED0C3A91ED0C4A02EE830AAC
:103F4000D2ED0D2A91ED0D3A01EE820A92ED0E2A84
:103F5000D1ED0F1A00EE810AD1ED0E0A92ED0F1A83
:103F600040314032103B04EE230A03EE220A00EEF9
:103F7000820A01EE810A102B9AD21AE0D1ED000AD2
:103F800092ED001A00EE810AD1ED010A92ED011ABC
:103F900000EE810AD1ED020A92ED021A00EE810ACA
:103FA000D1ED030A92ED031A103110321B1F00EEFF
:103FB000810A042BE2D206E0F1EC010A5B1EB2ECAE
:103FC000011A00EE810A002BF6D1D0ED000A30EE86
:103FD000800A80ED000A70470000000010B510EE66
:103FE000104A4FF019406849002200EB44002DEDC3
:103FF000028B884257D8DFED650A14F0004F60EE5F
:10400000200A14BFBEEE001AB6EE001A71EE200AA6
:10401000FDEEE00A10EE900A00EE900AF8EEE00ADB
:104020009FED5B1A00EEC10A9FED5A1A00EEC10A1D
:10403000DFED590A9FED591A00EE201ADFED580AFC
:1040400040EE010A9FED571A574B00F0030100EEB6
:10405000201A21EE000A7B4403EB8103D3ED000A12
:10406000524B7B4403EB810393ED001A504B41EE1E
:10407000000A7B4403EB8101801091ED000A70EE91
:10408000800AEABB00EE100AB8EEC01ADFED491A4A
:104090009FED490ABDEC028B01EE210ABCEEC00A7D
:1040A00020EE200A10BD4FF0FF40A0431BD04FF080
:1040B000CE40B0EB440F82BFB7EE000ABDEC028BDE
:1040C00010BD3E48B0EB440F28BF012293D202201E
:1040D00000F09CF814F0004F15D0BDEC028BBDE849
:1040E000104000F07BB814F5000F02BF9FED340ABA
:1040F000BDEC028B10BDBDEC028BBDE8104000E0B2
:1041000007E000F05FB8BDEC028BBDE8104000F0A6
:104110005DB800EBD07359104FF07E5202EBC151E5
:1041200000EE101AA0EB630002EBC05060EE200A14
:1041300000EE100A20EE208A18EE100A88B118EE60
:10414000100AB0F1FF4F15D018EE100AFFF788FEE5
:10415000042808BF00F042F8B0EE480ABDEC028B1C
:1041600010BD022000F052F8BDEC028BBDE81040FB
:1041700000F034B8022000F049F8BDEC028BBDE835
:10418000104000F023B800000000501E3BAAB840C9
:104190000070313EF4FD053712BB2A3D12BB2A3EAA
:1041A000FFFFFF3EFFFF7F3FEAF40500EEF405004E
:1041B000BEF405000000004B00007E4E0000A0850C
:1041C0000000000030EE000A704700009FED020A78
:1041D00020EE000A70470000000000709FED020A08
:1041E00020EE000A704700000000001002E008C83E
:1041F000121F08C1002AFAD170477047002001E061
:1042000001C1121F002AFBD170470000014908605C
:10421000704700008020001010B5416904468847AF
:104220002069A04200D1002010BD00002DE9F04F10
:10423000002699B00F4605463446B0464CE0A868C3
:10424000C4EBC4038946426802EB83020E92806885
:1042500010AA00EBC40A2C480D9251F8082F006AEE
:10426000120A62F31F200190D1F804B01C2105A8A6
:10427000FBF7F2FFD9F81800006801F029F8059063
:10428000D9F81800806806905FEA0A0009D0C0F8E3
:104290000080D9F80010416029B1498819B1012185
:1042A00002E0404603E00021016001B900200790D0
:1042B000D9F818001C2205A9406809900198CDE999
:1042C0000A0B0D98FBF7AFFF1C2210A90E98FBF705
:1042D000AAFF761CB6B2641C0DB1288800E000204D
:1042E000A04205D9686818B150F824100029A6D159
:1042F0001EB1A8684068386001E0C7F8008019B0B6
:104300003046BDE8F08F000030320608D3ED000AD9
:104310009FED0B1A01EB820300EB8200001F1B1FB5
:104320008B420BD393ED000AB4EEE00AF1EE10FAE3
:1043300001D8B0EE410A80ED000AEFE770470000B7
:10434000000000002DE9F0479946DDE908870C469A
:10435000054601EB820608E04A462146284602F05F
:10436000E5FA04EB880405EB8705B442F4D3BDE815
:10437000F08700002DE9FF5F82B00021DDE9043005
:10438000020DDDF840B0034318D044F61050A2F2FD
:10439000FF3242431514119801281FD0A5EB0B00E2
:1043A000401C5FEA000A4FF000064E4FDFF83891DC
:1043B000B046504615D5CAF1000413E01198012407
:1043C0004AA3012801D16FEA0B010298119AC0E9B2
:1043D0000031C0E9024206B0BDE8F09FCBF1000019
:1043E000DFE704460021404A491842EB0450CDE97A
:1043F000001012E0E00707D032463B4640464946EF
:10440000FCF731F88046894632463B46104619464D
:10441000FCF729F806460F466410002CEAD1DDE9C6
:104420000401DDE90023BAF1000F06DAFCF71BF8FE
:1044300042464B46FCF717F805E0FCF786F8424683
:104440004B46FCF782F804460E460022284BFCF748
:1044500003F903D84FF0FF30014607E00022254B57
:1044600020463146FBF758FFFCF7DEF8102409E040
:10447000002C0ADB0A220023FBF7A4FE039B303248
:104480001A55641E50EA0102F2D1641C039AC4F169
:1044900011031444119A012A03D0012208430DD1BB
:1044A0000AE0084304D000204FF0110B119072E78E
:1044B000A3EB0B056D1E0DE05B4504DD4FF0000224
:1044C00005F1010504E003DA4FF00002A5F1010552
:1044D000002AECD002981199C0E90231C0E90045E8
:1044E00079E70000000014400000F03F30000000B9
:1044F0000000F0430000E03FF0B50546059C24F0C5
:10450000010003EB80069FED460AE70856E001C96B
:10451000D3ED002AC0F3031C02EB8C0C9CED002AA7
:1045200000F00F0C02EB8C0C02EE220ADCED001AFC
:1045300093ED012AC0F3072C4FEA1C1C02EB8C0CF4
:1045400001EE820A9CED001AD3ED021AC0F3032C8F
:1045500002EB8C0CD3ED042A01EE210ADCED000AFB
:1045600093ED031AC0F3074C4FEA1C1C02EB8C0CB2
:1045700000EE810A9CED002AC0F3034C02EB8C0C88
:10458000DCED001A02EE220A93ED052A4FEA107CB8
:1045900002EB8C0CC0F303609CED001A01EE820A62
:1045A000D3ED061A02EB8000D0ED000A01EE210ADD
:1045B00093ED071A20337F1E00EE810A002FA6D14B
:1045C00016E000BF11F8010B93ED001A070902EB8A
:1045D000870700F00F00D7ED000A02EB800000EE25
:1045E000810AD0ED000A93ED011A083300EE810A2A
:1045F000B342E7D3E0070AD011F8010B93ED001A9C
:10460000000902EB8000D0ED000A00EE810AD5ED32
:10461000000A084630EE800A85ED000AF0BD000071
:1046200000000000F0B50446059D9FED370AE8083C
:104630004FE040C9D3ED002AF7B202EB8707401ED6
:1046400097ED002AC6F3072702EB870702EE220A3E
:10465000D7ED001A93ED012AC6F3074702EB87074F
:10466000360E01EE820A97ED001AD3ED021A02EB24
:104670008606D3ED042AD6ED000A01EE210A93ED59
:10468000031A40C9F7B200EE810A02EB870797EDE3
:10469000002AC6F3072702EB870702EE220AD7EDAE
:1046A000001A93ED052AC6F3074702EB8707360E7B
:1046B00001EE820A97ED001AD3ED061A02EB860688
:1046C000D6ED000A01EE210A93ED071A203300EE21
:1046D000810A0028ADD105F007000AE011F8015B5E
:1046E000401E02EB8505B3EC011AD5ED000A00EE81
:1046F000810A0028F2D1D4ED000A084630EE800A83
:1047000084ED000AF0BD00000000000070B5054611
:104710000C4648886988884202D9AAB1002070BD39
:1047200092B100260CE000BF6168C6EBC6006A6863
:1047300001EB800102EB80001C22FBF774FD761C6C
:104740006088B042F0D801E0606868606088688086
:1047500020882880012070BD30B500B3F9B1F2B1D6
:104760005268E2B10F4C1368A34203D002600129E2
:1047700013D014E00023121D07E000BF52F82350AD
:10478000A54204D040F823505B1C8B42F6D38B42E9
:1047900005D152F82300A04201D1012030BD0020F4
:1047A00030BD0000DECAFAA170B50D460600144601
:1047B0001AD0CCB1104600F031FE00B16088A8429A
:1047C00012D10023042109E0C3EBC302606801EBAE
:1047D0008202805820B146F823005B1CAB42F3D321
:1047E000AB4201D1012070BD002070BD0349884259
:1047F00001D101207047002070470000DECAFAA1F5
:104800002DE9FE4F92468946040003D0208E20B148
:10481000656B03E00020BDE8FE8F0025002060836B
:104820002083207CC043800702D030221121DCE0AD
:10483000B9F1000F61D0D5B32888C0B3D9F81800FA
:104840000026D0F8008056E0A868006800EB06104B
:10485000019052D058B3C6EBC600029009EB80001D
:104860000121009000F0E4FDDBF81830596888421F
:104870001AD80098DBF80C208069D768D0F80CC0F3
:10488000674511D19768D0F808C067450CD15268C8
:104890004068824208D1186800F00AFD0746584671
:1048A00002F0F2F9874203D2182212219DE024E09F
:1048B000DBF81800006800F00BFD029920F07E4242
:1048C00059F8210020F07E40824201D01922ECE705
:1048D0000098406888B100988069006878B14146C6
:1048E000404500D208468046DDE900105A4600F0F7
:1048F0008FF8761C2DB1288804E01722D5E72122F5
:10490000D3E70020B04206D9686820B150F826B03D
:10491000BBF1000F98D1BAF1000F74D0208E01289E
:1049200006D9656B0C3503D0288808B1002658E0FD
:10493000182259E0A868006800EB061B3BD0BBF1C9
:10494000000F38D0C6EBC60001900AEB80000121B1
:10495000009000F06DFDD9F8183059688842E7D80A
:104960000098D9F80C208069D768D0F80CC067454A
:10497000DED19768D0F808C06745D9D15268406841
:104980008242D5D1186800F093FC0746484602F0F1
:104990007BF98742CCD3D9F81800006800F098FC66
:1049A00020F07E4201985AF8200020F07E4082429A
:1049B00003D0192218E0172216E00098406800285A
:1049C000F9D000988069006868B14146404500D23E
:1049D000084680464A465846009900F019F8761C69
:1049E0003DB1288806E021221321204600F0F6FF81
:1049F00010E70020B04206D9686820B150F8269030
:104A0000B9F1000F96D1A4F818804FF0010002E729
:104A100070B504460E461546104602F035F90146BB
:104A2000A060B06900684843E060716861607268C6
:104A300010442060A8690268920007D4D0E90223DC
:104A4000D21A11448160A9696068C86070BD70B5F0
:104A50000646002521E0B068006800EB051488696F
:104A60000268920005D58168A268606803F0D6FAF2
:104A700008E0D0E90223D21A63681A448260896987
:104A80006068C860D4E90101084460602168884218
:104A900001D3E068081A6D1C60600EB1308800E038
:104AA0000020A84206D97068002803D050F82510CD
:104AB0000029D0D170BD2DE9F0410646002529E03E
:104AC000B1688369096801EB051419688900D4E9A4
:104AD00001120DD5986803F0A1FAD4E90101084448
:104AE00060602168884201D3E068081A606010E0C5
:104AF0000A44626021688A4201D3E2688A1A6260CD
:104B00008169D1E90237DB1B1A448A6080696168D8
:104B1000C1606D1C0EB1308800E00020A84206D9AB
:104B20007068002803D050F825000028C8D1BDE8DF
:104B3000F08100002DE9FF4F95B09A468846064661
:104B40000025EEE1252877D100242746F94A0121E6
:104B5000039400E0044316F8013F203B01FA03F000
:104B60001042F7D130782A2811D06FF02F03307817
:104B7000A0F13002092A16D8039A44F0020402EB8D
:104B8000820203EB42021044761C0390EFE758F8D0
:104B9000042B0392002A03DA504244F40054039099
:104BA00044F00204761C30782E2816D116F8010F36
:104BB00044F004042A280DD06FF02F023078A0F1C1
:104BC0003003092B09D807EB870302EB4303C7180F
:104BD000761CF3E758F8047B761C30786C280FD0ED
:104BE00006DC4C2817D068280DD06A2814D104E0C0
:104BF000742810D07A280FD10DE044F400140AE094
:104C000044F4801401E044F440147278824202D1EA
:104C100004F58014761C761C307866280BD013DCE3
:104C2000582877D009DC002875D04528F6D04628CA
:104C3000F4D047281AD193E118E0632835D06428CE
:104C400079D0652812D18BE1702873D008DC6728F1
:104C5000F1D069286FD06E280DD06F2806D1ACE056
:104C600073282CD0752874D0782853D052461799C1
:104C700090476D1C54E1C4F30250022809D0032868
:104C80000DD0D8F8001004280DD00D6008F10408EC
:104C900046E1D8F80010EA17C1E90052F6E7D8F863
:104CA00000100D80F2E70D70F0E718F8041B8DF886
:104CB000001000208DF80100EB46012003E058F8B9
:104CC00004BB4FF0FF3061074FF0000102D40DE04C
:104CD00009F101018946B9420FDA8145F8DB1BF879
:104CE00009100029F4D108E009F101018946814247
:104CF000FADB1BF809100029F6D103985346A0EB04
:104D0000090721463846179A00F080FA284400EB3C
:104D1000090507E044E008E10DE01BF8010B5246ED
:104D200017999047B9F10109F7D253462146384601
:104D3000179AF2E039E00A21C4F302524FF0000B57
:104D40000091022A06D058F8040BC117032A09D093
:104D50000AE023E008F1070020F00702F2E8020170
:104D6000904605E000B2C117042A01D140B2C11734
:104D7000002906DA0A460021404261EB02012D2299
:104D800002E0220504D52B228DF80420012203E045
:104D9000E20701D02022F7E7914657E00A2100E020
:104DA00010214FF0000B00910BE010214FF0000B91
:104DB00044F004040827009103E008204FF0000BA2
:104DC0000090C4F30252022A05D058F8040B0021C7
:104DD000032A08D008E008F1070020F00702F2E8F3
:104DE0000201904603E080B2042A00D1C0B24FF025
:104DF000000922072AD53278702A07D0DDF800C0D2
:104E00008CF0100C5CEA0B0C05D00EE040228DF803
:104E10000420012208E050EA010306D030238DF877
:104E200004308DF8052002229146009B83F0080390
:104E300053EA0B030AD150EA010201D1620705D5FA
:104E400030228DF804204FF001097F1E3278582A55
:104E500004D039A20C920CAA02920BE03BA2F9E713
:104E60005B46009AFBF7AEF90C9B9B5C029A521EC4
:104E70000292137050EA0102F2D1029804A9081AB2
:104E800000F1200B600702D524F4803400E00127F4
:104E90005F4502DDA7EB0B0000E0002000EB0B01FB
:104EA000009003984944401A0390E00306D4534607
:104EB0002146179A039800F0A9F90544002706E057
:104EC00001A85246C05D179990476D1C7F1C4F4545
:104ED000F6DBE0030CD553462146179A039800F001
:104EE00095F9054404E030205246179990476D1C0F
:104EF0000099481E00900029F5DC08E0029802990C
:104F000052460078491C0291179990476D1CBBF1DD
:104F10000001ABF1010BF1DC5BE100F065F9054448
:104F2000761C307800287FF40DAE19B02846BDE815
:104F3000F08F000009280100303132333435363724
:104F400038396162636465660000000030313233D5
:104F50003435363738394142434445460000000075
:104F6000600700D4062708F1070020F00700F0E8EA
:104F70000223804603F0004C5FEA0C0001D097A0AA
:104F800009E0200501D596A005E0E00701D095A035
:104F900001E0AFF24C001390307823F00043652815
:104FA0000CD006DC452809D046281DD047287FD1E3
:104FB0003BE0662818D067287AD136E00021112F0F
:104FC00001DB112000E0781CCDE9000104A90CA848
:104FD000FFF7D0F9DDE90D010C9A4FF0000B07F156
:104FE0000109109200914EE04FF000400097CDE98A
:104FF000011004A90CA8FFF7BDF9DDE90D020C9B17
:105000000F994FF0000B91461093009211B9791C43
:1050100000EB0109B7EB090003D4C0F1FF3B07F136
:105020000109A9EB0700019042E0012F00DA0127F6
:105030000021112F01DD112000E03846CDE90001EB
:1050400004A90CA8FFF796F9DDE90D010C9A00916F
:105050004FF0000BB946109221070FD4009A4A4531
:1050600003DA914601E0A9F10109B9F1010F05DD6B
:10507000109AA9F10101515C3029F4D0B84202DA4A
:1050800010F1040F03DA0121CDE9011010E000282E
:1050900003DC8344A9EB000102E0411C494500DD2B
:1050A0008946A0EB0B00401C01904FF0004002909D
:1050B000200705D40198484502DB4FF0FF300190EE
:1050C00000208DF84B0002980DF14B07B0F1004F16
:1050D00025D002200C902B200D90029800280CDA8D
:1050E000404202902D200D9007E00A210298FBF724
:1050F000DEF83031029007F8011D0C99481E0C9023
:105100000029F2DC02980028EFD1791E0D98087072
:10511000307800F0200040F0450007F8020D11A89B
:10512000C01BC01D02901398007800B1012000EB55
:105130000901019801EBE071029801440398401ABB
:10514000401E0390E00306D453462146179A039865
:1051500000F05CF805441398007818B1524617998E
:1051600090476D1CE00323D553462146179A0398B8
:1051700000F04CF805441BE0BBF1000F07DB009882
:10518000584504DD1098179910F80B0001E01799A5
:1051900030205246904701980BF1010B401E05F15B
:1051A0000105019004D12E205246179990476D1C9D
:1051B000B9F10001A9F10109DEDC05E017F8010BE6
:1051C0005246179990476D1C0299481E029000297B
:1051D000F4DC53462146179A03989EE62D00000002
:1051E0002B000000200000002DE9F04104460025BE
:1051F0001E461746880404D405E039462020B047EF
:105200006D1C641EF9D52846BDE8F0812DE9F041FA
:10521000044600251E469046C80301D5302700E00D
:105220002027880404D505E041463846B0476D1C68
:10523000641EF9D52846BDE8F0810A68531C0B604E
:105240001070704738B50E4800226946006800901B
:105250000C4800F095F910F0FF0F02D04FF0FF302E
:1052600038BD084C0021241F606800F0FBF9206164
:105270000021606800F000FA6061002038BD000085
:10528000AC8000080400001010B5084C0B462169E2
:10529000486062695360606800F0F8F9012802D044
:1052A000606800F0C5F9002010BD0000000000108B
:1052B00059B1C0F3C6125143C91D21F00701C0F313
:1052C0004150C140C91DC808704700207047000008
:1052D00070B54021C0F34342022A1BD0394A20F066
:1052E0007E439C1A0D014E0193425FD029DC364A61
:1052F000A3EB0204934259D019DC402B57D0403B1A
:10530000B3F580234CD0802B37D0AB424FD12E4900
:10531000C91F4CE0C0F3C051C905C0F3C61241EA31
:10532000C21100F07F02114341F480213FE0A4F557
:105330004074F93C1FD00F2C35D0B44237D12349EB
:1053400035E0234BE21A9C421BD00BDC214AA21809
:105350001DD0802A19D0AA4211D0A2F58062073A46
:1053600025D117E00F2A18D0B2420CD01A4BDA42DE
:105370001DD11A491BE01A4919E01A4917E01A49C8
:1053800015E01A4913E01A4911E01A490FE01949CA
:1053900080390CE01449C91D09E014490F3106E0B9
:1053A0001049803903E00E490F3100E0114600F04A
:1053B00080420A4300F00051114300F000600843AE
:1053C00070BD0000400406004704040040100400C3
:1053D00000047E00000482FF00F801FF40108201FB
:1053E00040080400C0000400400484004008840019
:1053F00040108400C000840070B514460D46064677
:1054000000F00CF840B17068C5EBC50110EB8100ED
:1054100002D04460012070BD002070BD28B14168F9
:1054200019B1408808B10120704700207047000082
:1054300010B502002AD0164B1068B3EBC01F03D082
:10544000144BB3EBC01F01D1012000E00020084243
:105450009069406802D01F3020F01F005369D9B214
:10546000012900D000211C0A07E0012907D0936917
:1054700053F821305843491C1AB1234602E0012356
:10548000F8E700238B42F0DC002800DC002010BD90
:10549000006000420060000208B509A1096800919F
:1054A00048B101789DF80020914204D10422694658
:1054B000FAF7DDFE08B1002008BD012008BD00009C
:1054C000038404842DE9F041066C816B04460025B9
:1054D000C163CEB1D9B10120626CB0470CE00220AB
:1054E000626CB047E06BFEF797FE07460320626CE4
:1054F000E16BB0476D1CE763E16B0029EFD106E07B
:10550000FEF78AFE6D1CE063E06B0028F8D12846A8
:10551000BDE8F08103460020996B002908D0CB60DC
:105520000A69401C8A4203D0002A01D01146F6E7DE
:1055300070472DE9F041846B002594B101260027C6
:105540002079C00707D0216A204611B1884730462C
:1055500000E0384605442069A04202D008B1044664
:10556000EEE72846BDE8F0811CB500230522CDE911
:1055700000230123014A00F0F7F81CBDD8130010E6
:105580002DE9F0430F468FB0164605460021FFF780
:10559000EBFF804610F0FF0F0AD1684600F034F8A8
:1055A00018B100240DF10C090EE0286800F040F855
:1055B0000FB0BDE8F08300BF57F8242021464846CD
:1055C000FFF71AFF641CA4B21FB1BDF80E00A04281
:1055D000F2D800246F4607E056F824202146381DF3
:1055E000FFF70AFF641CA4B21EB1BDF80600A0427A
:1055F000F2D86946286800F01DF818B9286800F04C
:1056000017F880464046D3E71FB500280CD007495D
:10561000D1E90023CDE90023D1E90221CDE902211E
:105620006A4602A900F034F804B010BDB083000847
:1056300000F0E8B82DE9F0410D46064600F0F0F81C
:10564000041E0DD0294601F03DFD0746294620469F
:1056500001F054FC00EA0704304600F06DF92040E8
:10566000BDE8F08110B90248024A026000F05AB861
:10567000D81300100001C0A110B90248024A02600C
:1056800000F0B2B9D81300100001C0A100F07CB93D
:1056900010B570B169B162B1074C0460D1E9004145
:1056A000C0E90141D2E90012C0E903120123184602
:1056B00010BD002010BD0000DECAFAA1016810B1C3
:1056C000024A8A4300D00020704700000001C0A1B8
:1056D00030B44AB140B139B1074C1368A34206D186
:1056E00030BC0C32FFF760B830BC0020704730BCD3
:1056F0001C32FFF731B80000DECAFAA130B44AB15B
:1057000040B139B1064C1368A34206D130BC121D1A
:10571000FFF74AB830BC0020704730BCFFF71CB818
:10572000DECAFAA1F8B50E46FFF7C8FF04000AD09A
:1057300000270097208E00B1606B6946FEF776FD6A
:10574000050006D00BE01022114600F047F90020BA
:10575000F8BD18221121204600F040F9009706B14B
:1057600035800098F8BD00002DE9F04F89B00500A4
:10577000DDE912104FF0000A564663F30706CDE943
:10578000011361F30F261D4F9146544660F31746EF
:10579000834618D0C5F8009000F0B8FAB8B1B84602
:1057A000BF8AC6F30721F0B2002200F081F9064655
:1057B000C7F30721F8B2002200F07AF9864208D038
:1057C000D8F804400EE0F86909B0BDE8F08F3C68F5
:1057D00008E00BA0006800906846FFF75DFE18B96E
:1057E000D8F80840C5F800A0DDE901105A4600F0DD
:1057F0005FF9C9F808002046E6E7000030320608E5
:105800000384048410B5FFF759FF20B1BDE81040B0
:105810000C3000F075BA0148806910BD30320608BE
:105820002DE9F04F91B00C46FFF748FF050013D06B
:10583000B4B13DA12068FEF7D9FF06004FF0000B80
:1058400011D020680190D4E90301CDE90401D4E925
:105850000101CDE9020143E0002011B0BDE8F08F65
:10586000112210215CE001212046D4F804A0FFF7AA
:10587000DFFD804604F11C00D4F820900121109037
:10588000FFF7D6FD07461422294907A8FAF7CBFCF3
:105890000120B8F1000F02D0ADF8220002E0ADF80F
:1058A00022B0002409941FB1ADF82A00109802E03C
:1058B000ADF82AB000200B90B9F1000F02D10FB162
:1058C000132206E0BAF1000F05D1B8F1000F02D0A3
:1058D0001222102123E0142207A901A8FAF7A3FC41
:1058E00014492868884212D186F00102144602A9A0
:1058F00005F12000FEF70AFF68B1224604A905F170
:105900002800FEF703FF40B12846FFF703FE0320FF
:1059100028612846A1E7122200E01322162128461A
:1059200000F05CF898E70000696E69740000000000
:10593000843206080001C0A170B5FFF7BFFE002841
:1059400007D0017C890705D41022112100F046F808
:10595000002070BD0B4A0168914211D10546FFF746
:10596000E8FD286C60B1AC6B54B1D5E9103221462A
:10597000002098472069A04202D008B10446F4E70D
:10598000012070BD0001C0A170B513460D46FFF7A0
:1059900095FE04461A462946FEF732FF00281CD021
:1059A000208E08B1656B00E00025012802D9666BE6
:1059B0000C360DE000260BE02846FFF748F820469D
:1059C000FFF780FD3046FFF776F8608B401C608360
:1059D000608B218B8842EFD380B270BD002802D04B
:1059E0000C3000F095B97047F8B50E46FFF766FE2B
:1059F000040007D000270097208E012808D9606B8B
:105A00000C3006E010221146FFF7E8FF0020F8BD39
:105A100000206946FEF70AFC050005D11822112175
:105A20002046FFF7DBFF009706B135800098F8BDF0
:105A300002460068010A012004E05368491E53F839
:105A4000213058430029F8D1704702460068010A06
:105A5000012004E05368491E53F8213058430029BF
:105A6000F8D1704702460068010A012004E053683B
:105A7000491E53F8213058430029F8D170470000DF
:105A800000EB830308E000BFB1EC010AF2EC010A6D
:105A900030EE200AA0EC010A9842F5D3704791ED50
:105AA000000AD2ED000A30EE200A80ED000A7047AD
:105AB000000640EA014040EA022070472DE9F04329
:105AC0009146DDE907670FB300221BE0144602EBA5
:105AD000090514E0A4EB020C07EB8C0806EB8C0C18
